S00D00006C636430332E7372656381
S11300000C9434000C9449000C9449000C9449005D
S11300100C9449000C9449000C9449000C94490038
S11300200C9449000C9449000C9449000C94490028
S11300300C9449000C9449000C9449000C94490018
S11300400C9449000C9449000C9449000C94490008
S11300500C9449000C9449000C9449000C944900F8
S11300600C9449000C94490011241FBECFEFD8E032
S1130070DEBFCDBF11E0A0E0B1E0EEEBF2E002C0E4
S113008005900D92AC34B107D9F70E94F6000C9498
S11300905D010C9400000895FF920F931F93CF937A
S11300A0DF938C01F62EEC012496CE010E944D01C3
S11300B0CE010E944701F8016581CE010E945501DD
S11300C0CE010E94470160E0CE010E945501CE019D
S11300D00E9447016F2DCE010E945501CE010E945E
S11300E0470160E0CE010E945501CE010E945101FA
S11300F0DF91CF911F910F91FF900895FF920F937D
S11301001F93CF93DF93EC01F62E8C010C5F1F4FEE
S1130110C8010E944201F1100AC08CE490E0998366
S113012088831B821A82C8010E94430109C081E0AE
S1130130F81206C08BE490E0998388831B821A82AC
S1130140DF91CF911F910F91FF900895DC011296DA
S11301508D919C91139780FD04C0ED91FC911197B2
S113016010C0FC01F595E795EA0FFB1F0190F081A3
S1130170E02D2D913C911197E20FF31F0190F08136
S1130180E02D959587958A0F9B1F09950895DC01AD
S113019012968D919C91139780FD04C0ED91FC9172
S11301A0119710C0FC01F595E795EA0FFB1F01902C
S11301B0F081E02D2D913C911197E20FF31F0190F6
S11301C0F081E02D959587958A0F9B1F09950895D9
S11301D06CE00E94A6000895662321F063E10E946A
S11301E0A600089564E10E94A6000895CF93DF93CA
S11301F0CDB7DEB727970FB6F894DEBF0FBECDBFDD
S1130200CE0107960E944201CE0107960E94430147
S113021028EC41E060E0CE0101960E947E00CE0110
S113022001960E94E80000E011E00F2EF0E5EF2EA9
S1130230F1E0FF2EF02DF80161918F01CE010196BE
S11302400E94C7000E151F05B1F760E0CE010196AC
S11302500E94EC00FFEF29E688E1F1502040804045
S1130260E1F700C0000061E0CE0101960E94EC00BD
S11302709FEFE9E6F8E19150E040F040E1F700C07B
S11302800000E3CF089580E28093B8000895ECEB7A
S1130290F0E080818823ECF7089584EA8093BC0021
S11302A0089584E98093BC0008956093BB0024E81A
S11102B02093BC000E9447010895F894FFCFEC
S11302BE6D79206E616D6520697320656D6F6E209A
S11302CE616E64206920616D20617765736F6D6561
S11302DE20616E64206920616D2074657374696E8B
S11302EE672074686973206D657373616765206F29
S10F02FE6E20746865206C63642020008E
S9030000FC
